:020000020000FC
:02000000FCC042
:1000AC0000000000000000000000000008950000A7
:1000BC000000000000000000000000000000000034
:1000CC000000000000008A95803089F70895282FE1
:1000DC008AEFEDDF8AEFEBDF8AEFE9DF8AEFE7DF0C
:1000EC002A952030A9F7089581BB5F9AD9DF5F98D4
:1000FC0008955E98F9DF8295F7DF8DE2D8DF0895D9
:10010C005E9AF2DF8295F0DF8DE2D1DF089584E113
:10011C00DEDF5E9880E3E8DF8AE0D9DF80E3E4DFAE
:10012C008AE0D5DF80E3E0DF8AE0D1DF80E2DCDF4C
:10013C008DE2BDDF88E2DDDF8CE0DBDF81E0D9DF43
:10014C0082E0C5DF86E0D5DF089585910491D8DF84
:10015C000030D9F708953134372A323538303336F8
:10016C00392320E0322F330F330F330F330F35B9D0
:10017C002F9381E0ACDF2F91669904C023952C302E
:10018C0089F72FE0822F08958F3051F0811751F0AD
:10019C00182FF1E0E2E6E80F80E0F81F8491089553
:1001AC001FE04FC00C94270157656C636F6D652180
:1001BC00000048656C6C6F00444943452047414D35
:1001CC0045000000526F6C6C696E67207468652086
:1001DC006469636500005072657373203220746F1C
:1001EC0020726F6C6C0056616C75653A20000FEFD5
:1001FC000DBF0AE00EBF0E9406010E948D0007C0D1
:10020C000FEF00BB04B90AB900E00DB90895F1E095
:10021C00E4EC9BDF8AEF5BDF8AEF59DF8AEF57DF75
:10022C008AEF55DF81E065DF87E241DF8AEF4FDF40
:10023C008AEF4DDF8AEF4BDF8AEF49DFF1E0E2EE28
:10024C0084DF8FDFA1DF882F5BDF8AEF40DFF9CF00
:00000001FF
