:020000020000FC
:02000000D5C069
:1000AC0000000000000000000000000008950000A7
:1000BC000000000000000000000000000000000034
:1000CC000000000000008A95803089F70895282FE1
:1000DC008AEFEDDF8AEFEBDF8AEFE9DF8AEFE7DF0C
:1000EC002A952030A9F7089557656C636F6D6521CB
:1000FC0081BB5F9AD5DF5F9808955E98F9DF829592
:10010C00F7DF8DE2D4DF08955E9AF2DF8295F0DF9F
:10011C008DE2CDDF089584E1DADF5E9880E3E8DFDD
:10012C008AE0D5DF80E3E4DF8AE0D1DF80E3E0DF43
:10013C008AE0CDDF80E2DCDF8DE2B9DF88E2DDDF53
:10014C008CE0DBDF81E0D9DF82E0C1DF86E0D5DF48
:10015C0008953134372A323538303336392320E09C
:10016C00322F330F330F330F330F35B92F9381E009
:10017C00AEDF2F91669904C023952C3089F72FE0C0
:10018C00822F08958F3051F08117F9F0182FF1E07C
:10019C00EEE5E80F80E0F81F849108951FE015C08C
:1001AC000FEF0DBF0AE00EBF0E94DF000E9491000E
:1001BC0007C00FEF00BB04B90AB900E00DB90895F0
:1001CC000BD080EC9ADF87E272DFC9DFDBDF882F90
:1001DC009BDF8AEF7CDFF9CFF0E0E4EF002785911D
:0A01EC0093DF03950830DCF308955B
:00000001FF
