S00C00006C6162342E73726563B5
S11300000C9456000C946B000C946B000C946B00D5
S11300100C946B000C946B000C946B000C946B00B0
S11300200C946B000C946B000C946B000C946B00A0
S11300300C946B000C946B000C946B000C946B0090
S11300400C946B000C946B000C946B000C946B0080
S11300500C946B000C946B000C946B000C946B0070
S11300600C946B000C946B000C946B000C946B0060
S11300700C946B000C946B000C946B000C946B0050
S11300800C946B000C946B000C946B000C946B0040
S11300900C946B000C946B000C946B000C946B0030
S11300A00C946B000C946B000C946B0011241FBE19
S11300B0CFEFDAE0DEBFCDBF11E0A0E0B1E0ECEAC3
S11300C0F2E002C005900D92A231B107D9F70E9467
S11300D0CD000C9454010C940000000000000000BA
S11300E0000000000000089500000000000000006F
S11300F000000000000000000000000000000000FC
S11301008A95803089F70895282F8AEFEDDF8AEFEA
S1130110EBDF8AEFE9DF8AEFE7DF2A952030A9F7E2
S11301200895382F8AEFF0DF8AEFEEDF8AEFECDFF5
S11301308AEFEADF3A953030A9F708950E94A300C8
S11301400E940F0108951DB880EF84B908950F939C
S11301501F93CF93DF93C0E0D0E085B1282F2F7099
S1130160CE0182959295907F9827807F9827822B45
S113017085B981E00E948400669B05C0FE01E050C1
S1130180FF4F808105C02196CC30D10531F780E046
S1130190DF91CF911F910F9108950E949E008CE0F2
S11301A091E00E943D010E94A7008823E1F3682F9B
S11301B081E00E94ED0088EC0E94840060E180E010
S11301C00E94ED00F0CF91B39F70807F892B81BB9B
S11301D05F9A0E946D005F980895CF93C62F811196
S11301E002C05E9801C05E9A8C2F0E94E3008C2F9F
S11301F08295807F0E94E3008DE20E947400CF917B
S1130200089561E080E00E94ED0082E00E94840095
S11302100895682F6C6080E00E94ED00089580EFDF
S113022080BB80EC8AB984E10E9484005E9880E3FC
S11302300E94E3008AE00E94840080E30E94E300BD
S11302408AE00E94840080E30E94E3008AE00E9426
S1130250840080E20E94E3008DE20E94740068E260
S113026080E00E94ED008CE00E9409010E940101DF
S113027066E080E00E94ED0008950F931F93CF93F2
S1130280FC016081662361F08C01C0E081E00E9482
S1130290ED00CF5FF801EC0FF11D60816111F6CF25
S10F02A0CF911F910F910895F894FFCFA7
S11302AC3134372A32353830333639237465737424
S10502BC00003C
S9030000FC
