:100000000C9456000C946B000C946B000C946B00D9
:100010000C946B000C946B000C946B000C946B00B4
:100020000C946B000C946B000C946B000C946B00A4
:100030000C946B000C946B000C946B000C946B0094
:100040000C946B000C946B000C946B000C946B0084
:100050000C946B000C946B000C946B000C946B0074
:100060000C946B000C946B000C946B000C946B0064
:100070000C946B000C946B000C946B000C946B0054
:100080000C946B000C946B000C946B000C946B0044
:100090000C946B000C946B000C946B000C946B0034
:1000A0000C946B000C946B000C946B0011241FBE1D
:1000B000CFEFDAE0DEBFCDBF11E0A0E0B1E0EEEAC5
:1000C000F1E002C005900D92A030B107D9F70E946F
:1000D0009E000C94D5000C9400000000000000006D
:1000E0000000000000000895000000000000000073
:1000F0000000000000000000000000000000000000
:100100008A95803089F70895282F8AEFEDDF8AEFEE
:10011000EBDF8AEFE9DF8AEFE7DF2A952030A9F7E6
:100120000895382F8AEFF0DF8AEFEEDF8AEFECDFF9
:100130008AEFEADF2A953030A9F708958FE00E9410
:10014000CF0082E00E9491008EE00E94CF0082E00A
:100150000E9491008CE00E94CF0082E00E949100FA
:10016000EDCF91B39F70807F892B81BB5F9A0E94F6
:100170006D005F980895CF93C62F811102C05E98DD
:1001800001C05E9A8C2F0E94B1008C2F8295807FD7
:100190000E94B1008DE20E947400CF910895682FF3
:0E01A0006C6080E00E94BB000895F894FFCFD1
:00000001FF
