:100000000C9456000C946B000C946B000C946B00D9
:100010000C946B000C946B000C946B000C946B00B4
:100020000C946B000C946B000C946B000C946B00A4
:100030000C946B000C946B000C946B000C946B0094
:100040000C946B000C946B000C946B000C946B0084
:100050000C946B000C946B000C946B000C946B0074
:100060000C946B000C946B000C946B000C946B0064
:100070000C946B000C946B000C946B000C946B0054
:100080000C946B000C946B000C946B000C946B0044
:100090000C946B000C946B000C946B000C946B0034
:1000A0000C946B000C946B000C946B0011241FBE1D
:1000B000CFEFDAE0DEBFCDBF11E0A0E0B1E0E0E3DA
:1000C000F2E002C005900D92A030B107D9F70E946E
:1000D000A7000C9416010C94000000000000000022
:1000E0000000000000000895000000000000000073
:1000F0000000000000000000000000000000000000
:100100008A95803089F70895282F8AEFEDDF8AEFEE
:10011000EBDF8AEFE9DF8AEFE7DF2A952030A9F7E6
:100120000895382F8AEFF0DF8AEFEEDF8AEFECDFF9
:100130008AEFEADF3A953030A9F708950E94A300CC
:100140000E94E80008951DB880EF84B908950E94C8
:100150009E008FE00E94E20082E00E9491008EE00B
:100160000E94E20082E00E9491008CE00E94E20086
:1001700082E00E949100EDCF91B39F70807F892B28
:1001800081BB5F9A0E946D005F980895CF93C62F40
:10019000811102C05E9801C05E9A8C2F0E94BC0043
:1001A0008C2F8295807F0E94BC008DE20E9474009B
:1001B000CF91089561E080E00E94C60082E00E9435
:1001C00084000895682F6C6080E00E94C600089546
:1001D00080EF80BB80EC8AB984E10E9484005E9845
:1001E00080E30E94BC008AE00E94840080E30E94B9
:1001F000BC008AE00E94840080E30E94BC008AE088
:100200000E94840080E20E94BC008DE20E94740083
:1002100068E280E00E94C6008CE00E94E2000E943A
:10022000DA0066E080E00E94C6000895F894FFCFEF
:00000001FF
