S00C00006C6162342E73726563B5
S11300000C9456000C946B000C946B000C946B00D5
S11300100C946B000C946B000C946B000C946B00B0
S11300200C946B000C946B000C946B000C946B00A0
S11300300C946B000C946B000C946B000C946B0090
S11300400C946B000C946B000C946B000C946B0080
S11300500C946B000C946B000C946B000C946B0070
S11300600C946B000C946B000C946B000C946B0060
S11300700C946B000C946B000C946B000C946B0050
S11300800C946B000C946B000C946B000C946B0040
S11300900C946B000C946B000C946B000C946B0030
S11300A00C946B000C946B000C946B0011241FBE19
S11300B0CFEFDAE0DEBFCDBF11E0A0E0B1E0EEE6C5
S11300C0F2E002C005900D92AC30B107D9F70E945E
S11300D0CD000C9435010C940000000000000000D9
S11300E0000000000000089500000000000000006F
S11300F000000000000000000000000000000000FC
S11301008A95803089F70895282F8AEFEDDF8AEFEA
S1130110EBDF8AEFE9DF8AEFE7DF2A952030A9F7E2
S11301200895382F8AEFF0DF8AEFEEDF8AEFECDFF5
S11301308AEFEADF3A953030A9F708950E94A300C8
S11301400E94070108951DB880EF84B908950F93A4
S11301501F93CF93DF93C0E0D0E085B1282F2F7099
S1130160CE0182959295907F9827807F9827822B45
S113017085B981E00E948400669B05C0FE01E050C1
S1130180FF4F808105C02196CC30D10531F780E046
S1130190DF91CF911F910F9108950E949E000E94BC
S11301A0A7008823E1F3682F81E00E94E50088EC32
S11301B00E948400F4CF91B39F70807F892B81BB10
S11301C05F9A0E946D005F980895CF93C62F8111A6
S11301D002C05E9801C05E9A8C2F0E94DB008C2FB7
S11301E08295807F0E94DB008DE20E947400CF9193
S11301F0089561E080E00E94E50082E00E948400AE
S11302000895682F6C6080E00E94E500089580EFF7
S113021080BB80EC8AB984E10E9484005E9880E30C
S11302200E94DB008AE00E94840080E30E94DB00DD
S11302308AE00E94840080E30E94DB008AE00E943E
S1130240840080E20E94DB008DE20E94740068E278
S113025080E00E94E5008CE00E9401010E94F90008
S111026066E080E00E94E5000895F894FFCF68
S10F026E3134372A323538303336392326
S9030000FC
