:020000020000FC
:02000000AAC094
:1000AC0000000000000000000000000008950000A7
:1000BC000000000000000000000000000000000034
:1000CC000000000000008A95803089F70895282FE1
:1000DC008AEFEDDF8AEFEBDF8AEFE9DF8AEFE7DF0C
:1000EC002A952030A9F7089581BB5F9AD9DF5F98D4
:1000FC0008955E98F9DF8295F7DF8DE2D8DF0895D9
:10010C005E9AF2DF8295F0DF8DE2D1DF089584E113
:10011C00DEDF5E9880E3E8DF8AE0D9DF80E3E4DFAE
:10012C008AE0D5DF80E3E0DF8AE0D1DF80E2DCDF4C
:10013C008DE2BDDF88E2DDDF8CE0DBDF81E0D9DF43
:10014C0082E0C5DF86E0D5DF08950FEF0DBF0AE032
:10015C000EBF0E94B4000E948D0007C00FEF00BBC1
:10016C0004B90AB900E00DB908958BE4C9DF85E440
:10017C00C7DF89E5C5DF8AE3C3DF80ECBADF87E23E
:10018C0096DF1FE010D08F30E1F38117D9F3182FD1
:10019C008A3010F007E0800F00E3800F882FB0DF6B
:1001AC008AEF95DFEFCF20E0322F330F330F330F71
:1001BC00330F35B92F9381E08ADF2F91669904C0F4
:0C01CC0023952C3089F72FE0822F089536
:00000001FF
