:100000000C945A000C9469010C9469010C946901D8
:100010000C9469010C9469010C9469010C946901B8
:100020000C9469010C9469010C9469010C946901A8
:100030000C9469010C9469010C9469010C94690198
:100040000C9469010C9469010C9469010C94690188
:100050000C9469010C9469010C9469010C94690178
:100060000C9469010C9469010C9469010C94690168
:100070000C9469010C9405010C9469010C946901BC
:100080000C9469010C9469010C9469010C94690148
:100090000C9469010C9469010C9469010C94690138
:1000A0000C9469010C9469010C946901010001022E
:1000B0000002D60011241FBECFEFDAE0DEBFCDBFB5
:1000C000ECEAF0E040E017C0B591A591359125919B
:1000D000059107FD0CC095918591EF01F92FE82F4F
:1000E00005900D92A217B307D9F7FE0104C01D9227
:1000F000A217B307E1F7E33BF40731F70E9466016B
:080100000C948200F894FFCF7B
:10010800000000000000000000000000089500004A
:1001180000000000000000000000000000000000D7
:100128000000000000008A95803089F70895282F84
:100138008AEFEDDF8AEFEBDF8AEFE9DF8AEFE7DFAF
:100148002A952030A9F70895382F8AEFF0DF8AEF33
:10015800EEDF8AEFECDF8AEFEADF3A953030A9F775
:020168000895F8
:10016A0080EF80BB80EC8AB984E10E949B008BB14E
:10017A008F7B8BB980E30E943A018AE00E949B0040
:10018A0080E30E943A018AE00E949B0080E30E9479
:10019A003A018AE00E949B0080E20E943A018DE2C5
:1001AA000E948B0068E280E00E9422018CE00E949B
:1001BA0057010E94480166E080E00E9422010895EA
:1001CA00ECE7F0E0808180648083808189608083AD
:1001DA00EAE7F0E0808187608083808180628083A3
:1001EA0080818860808380818068808383E08093B7
:1001FA007E001092D800789480818064808308956C
:10020A001F920F920FB60F9211242F938F939F93E1
:10021A00209178008091790090E0982F8827820FAA
:10022A00911D90930101809300019F918F912F91CD
:0A023A000F900FBE0F901F90189553
:10024400CF93C62F811104C08BB18F7B8BB903C0B0
:100254008BB180648BB98C2F0E943A018C2F8295CC
:10026400807F0E943A018DE20E948B00CF91089515
:1002740091B39F70807F892B81BB8BB180688BB9D0
:0C0284000E9484008BB18F778BB9089525
:1002900061E080E00E94220182E00E949B000895BC
:0E02A0000E945D010E9462010E94E500089527
:0C02AE00682F6C6080E00E94220108951F
:0A02BA000E9462010E94B500089541
:0802C4001DB880EF84B9089514
:0602CC000E945001FFCF6B
:0402D2000C94000088
:0202D600DD0049
:00000001FF
