:100000000C945A000C94A1000C94A1000C94A10033
:100010000C94A1000C94A1000C94A1000C94A100DC
:100020000C94A1000C94A1000C94A1000C94A100CC
:100030000C94A1000C94A1000C94A1000C94A100BC
:100040000C94A1000C94A1000C94A1000C94A100AC
:100050000C94A1000C94A1000C94A1000C94A1009C
:100060000C94A1000C94A1000C94A1000C94A1008C
:100070000C94A1000C9484000C94A1000C94A10099
:100080000C94A1000C94A1000C94A1000C94A1006C
:100090000C94A1000C94A1000C94A1000C94A1005C
:1000A0000C94A1000C94A1000C94A1000100010289
:1000B0000001480011241FBECFEFDAE0DEBFCDBF44
:1000C000ECEAF0E040E017C0B591A591359125919B
:1000D000059107FD0CC095918591EF01F92FE82F4F
:1000E00005900D92A217B307D9F7FE0104C01D9227
:1000F000A217B307E1F7E33BF40731F70E94A3002F
:080100000C948200F894FFCF7B
:100108001F920F920FB60F9211242F938F939F93E4
:10011800209178008091790090E0982F8827820FAD
:10012800911D90930101809300019F918F912F91D0
:0A0138000F900FBE0F901F90189556
:040142000C94000019
:02014600FFCFE9
:02014800DD00D8
:00000001FF
