:100000000C9456000C94A7010C94A7010C94A70122
:100010000C94A7010C94A7010C94A7010C94A701C0
:100020000C94A7010C94A7010C94A7010C94A701B0
:100030000C94A7010C94A7010C94A7010C94A701A0
:100040000C94A7010C94A7010C94A7010C94A70190
:100050000C94A7010C94A7010C94A7010C94A70180
:100060000C94A7010C94A7010C94A7010C94A70170
:100070000C94A7010C9486010C94A7010C94A70181
:100080000C94A7010C94A7010C94A7010C94A70150
:100090000C94A7010C94A7010C94A7010C94A70140
:1000A0000C94A7010C94A7010C94A70111241FBE66
:1000B000CFEFDAE0DEBFCDBFECEAF0E040E017C002
:1000C000B591A59135912591059107FD0CC09591AC
:1000D0008591EF01F92FE82F05900D92A217B30734
:1000E000D9F7FE0104C01D92A217B307E1F7EC3A5D
:1000F000F40731F70E945E010C947E00F894FFCF64
:0D0100006E6F6F62005669736172204300DC
:10010E000000000000000000000000000895000044
:10011E0000000000000000000000000000000000D1
:10012E000000000000008A95803089F70895282F7E
:10013E008AEFEDDF8AEFEBDF8AEFE9DF8AEFE7DFA9
:10014E002A952030A9F70895382F8AEFF0DF8AEF2D
:10015E00EEDF8AEFECDF8AEFEADF3A953030A9F76F
:02016E000895F2
:1001700080EF80BB80EC8AB984E10E949E008BB145
:100180008F7B8BB980E30E946E018AE00E949E0003
:1001900080E30E946E018AE00E949E0080E30E943C
:1001A0006E018AE00E949E0080E20E946E018DE254
:1001B0000E948E0068E280E00E9446018CE00E946E
:1001C00098010E94900166E080E00E944601089537
:1001D0006F927F928F92CF92DF92EF920F933B01BB
:1001E000882E6901E42E8CE00E9498010E94900103
:1001F000882DB3010E94110160E081E00E947C0122
:100200008E2DB6010E941101002319F0802F0E944B
:10021000AB000F91EF90DF90CF908F907F906F9019
:0202200008953F
:10022200CF92DF92EF92CF936B01E82EC0E004C031
:1002320081E00E944601CF5FAE2DC6018C0F911D59
:10024200A11DFC016491A7FD60816111F1CFCF91E5
:08025200EF90DF90CF900895BA
:10025A00ECE7F0E08081808380818083EAE7F0E048
:10026A008081808380818083808180838081808374
:10027A0083E080937E001092D800789480818083F6
:02028A000895D5
:10028C00CF93C62F811104C08BB18F7B8BB903C068
:10029C008BB180648BB98C2F0E946E018C2F829550
:1002AC00807F0E946E018DE20E948E00CF91089596
:1002BC000E949E010E94A3010E942D0100E020E0FB
:1002CC0031E040E065E071E080E00E94E800F6CFAC
:1002DC0091B39F70807F892B81BB8BB180688BB968
:0C02EC000E9487008BB18F778BB90895BA
:1002F80020E4829FC0011124682B606880E00E947E
:04030800460108950D
:10030C001F920F920FB60F9211240F900FBE0F90E9
:04031C001F90189581
:1003200061E080E00E94460182E00E949E00089504
:0C033000682F6C6080E00E944601089578
:0A033C000E94A3010E94B80008957A
:080346001DB880EF84B9089591
:04034E000C9400000B
:00000001FF
