:100000000C945A000C9453060C9453060C9453060B
:100010000C9453060C9453060C9453060C945306FC
:100020000C9453060C9453060C9453060C945306EC
:100030000C9453060C9453060C9453060C945306DC
:100040000C9453060C9453060C9453060C945306CC
:100050000C9453060C9453060C9453060C945306BC
:100060000C9453060C9453060C9453060C945306AC
:100070000C9453060C944A050C9453060C945306A6
:100080000C9453060C9453060C9453060C9453068C
:100090000C9453060C9453060C9453060C9453067C
:1000A0000C9453060C9453060C9453060100010261
:1000B000000CAA0011241FBECFEFDAE0DEBFCDBFD7
:1000C000ECEAF0E040E017C0B591A591359125919B
:1000D000059107FD0CC095918591EF01F92FE82F4F
:1000E00005900D92A217B307D9F7FE0104C01D9227
:1000F000A217B307E1F7E33BF40731F70E94CE0202
:080100000C948200F894FFCF7B
:10010800546F206368616E6765206D6F6465005089
:100118007265737320312D330025752563430025DF
:10012800752563460025752563432C2025752563B1
:0F013800460054454D50455241545552453A00EA
:0C0147003134372A323538303336392352
:100154002F923F924F926F927F928F929F92AF9283
:10016400BF92CF92DF92EF92FF920F931F93CF93A0
:10017400DF93CDB7DEB762970FB6F894DEBF0FBE3C
:10018400CDBF6C013A01862E7901FC0110861782DD
:10019400848181FFE7C19E012F5F3F4F3D872C87FC
:1001A400C901A0E8888B998BAA8B9FE3992EF30150
:1001B400849187FC8081882309F4D0C1482D930160
:1001C4002F5F3F4F4F4F853219F03901842E0AC0FB
:1001D400F901849147FD808192E0690E711C811CB4
:1001E400853229F4B60190E00E94B703E0CFB12C28
:1001F40000E010E01032A0F48B3269F030F4803269
:1002040059F0833269F410612CC08D3239F0803397
:1002140039F4116026C01260146023C0186021C034
:1002240017FD29C090ED980F9A3078F416FF06C098
:10023400AAE0BA9E900D1124B92E13C0EAE00E9FD5
:10024400900D1124092F10620CC08E3221F416FD7A
:1002540085C1106406C08C3611F4106802C088365B
:1002640051F4F301849187FC8081FFEF6F1A7F0AB8
:100274008F0A8111BFCF982F9F7D9554933028F416
:1002840024E0E20EF11C99820FC0833631F08337EB
:1002940091F0833509F063C027C0F7018081898319
:1002A40097012E5F3F4F7901288839884A88AA240C
:1002B400A394B12C17C0A7014D5F5F4F5F874E8792
:1002C400F70120803180428016FF03C04B2D50E09F
:1002D40002C04FEF5FEF842DB1010E949F055C01C6
:1002E400EE84FF841F7718C097012D5F3F4F3F872F
:1002F4002E87F70120803180428016FF03C04B2DEA
:1003040050E002C04FEF5FEF842DB1010E949F05C2
:100314005C011068EE84FF8413FD1DC0802F90E003
:10032400A816B906C0F4B60180E290E00E94B703B3
:100334000150F4CFF101849147FC8081FFEF2F1A23
:100344003F0A4F0AB60190E00E94B7030111015021
:1003540021E0A21AB108A114B10461F7F5C08436F2
:1003640011F0893671F5F70117FF08C060817181BA
:100374008281938197012C5F3F4F09C06081718115
:10038400072E000C880B990B97012E5F3F4F7901C4
:100394001F76312E97FF0AC09095809570956195D0
:1003A4007F4F8F4F9F4F312F3068332E2AE030E03C
:1003B400AE014F5F5F4F0E945903482E4C85441A8B
:1003C4004AC0853729F41F7EA12E2AE030E025C0DB
:1003D400512F597FA52E8F36C1F018F4883579F046
:1003E400BDC0803719F0883721F0B8C0852F8061EF
:1003F400A82EA4FE0DC09A2D9460A92E09C014FF46
:100404000AC0A52FA660AA2E06C028E030E005C0C9
:1004140020E130E002C020E132E0F701A7FE08C08D
:100424006081718182819381A7014C5F5F4F07C016
:100434006081718180E090E0A7014E5F5F4F7A0197
:10044400AE014F5F5F4F0E945903482E5C85451AE9
:100454008A2D8F77382E36FE0DC0932D9E7FA92EC0
:100464004B1458F434FE0BC032FC09C0A32DAE7EED
:10047400AA2E05C0142DA32C03C0142D01C01B2DBE
:10048400A4FE0EC0FE01E40DF11D8081803321F431
:10049400EA2DE97EAE2E08C0A2FE05C01E5F04C090
:1004A4008A2D867809F01F5FA3FC11C0A0FE06C048
:1004B400101788F4040DB02EB11A0EC0101760F492
:1004C400B60180E290E00E94B7031F5FF7CF1017D8
:1004D40018F4011B02C0B42C00E0A4FE10C0B60145
:1004E40080E390E00E94B703A2FE17C0A1FC03C002
:1004F40088E790E002C088E590E0B6010CC08A2D40
:10050400867859F0A1FE02C08BE201C080E2A7FC0C
:100514008DE2B60190E00E94B7034B1438F4B601A3
:1005240080E390E00E94B703BA94F7CF4A94E1E0E5
:10053400F0E0EC0FFD1FE40DF11D8081B60190E0A9
:100544000E94B7034110F2CF002309F430CEB60164
:1005540080E290E00E94B7030150F6CFF601878154
:10056400908502C08FEF9FEF62960FB6F894DEBFBE
:100574000FBECDBFDF91CF911F910F91FF90EF90F0
:10058400DF90CF90BF90AF909F908F907F906F90AF
:080594004F903F902F90089555
:10059C00CF93DF93CDB7DEB761970FB6F894DEBF7C
:1005AC000FBECDBF0E944A060E944F060E942A052C
:1005BC0000E028E031E040E067E171E080E00E947B
:1005CC00DE0410E001C010E01130E9F018F0123038
:1005DC0099F151C00E94F3031F929FED9F931F92BC
:1005EC008F9381E291E0A0E0AF939F938F93CE0124
:1005FC0001969F938F930E9407050FB6F894DEBF68
:10060C000FBECDBF38C00E9486041F929FED9F93F2
:10061C001F928F9387E291E0A0E0AF939F938F930B
:10062C00CE0101969F938F930E9407050FB6F89405
:10063C00DEBF0FBECDBF1FC00E948604082F0E94D4
:10064C00F3031F929FED9F931F920F931F929F9303
:10065C001F928F938DE291E0A0E0AF939F938F93C5
:10066C00CE0101969F938F930E9407050FB6F894C5
:10067C00DEBF0FBECDBF9E012F5F3F4F40E800E0B5
:10068C006AE371E080E00E94DE040E94B3048233CE
:10069C0031F0833331F0813309F096CF94CF11E0F0
:0606AC0093CF12E091CF94
:1006B200FA01AA27283051F1203181F1E8946F9391
:1006C2006E7F6E5F7F4F8F4F9F4FAF4FB1E03ED037
:1006D200B4E03CD0670F781F891F9A1FA11D680FD5
:1006E200791F8A1F911DA11D6A0F711D811D911D08
:1006F200A11D20D009F468943F912AE0269F11247D
:100702003019305D3193DEF6CF010895462F4770E0
:10071200405D4193B3E00FD0C9F7F6CF462F4F703B
:10072200405D4A3318F0495D31FD4052419302D099
:10073200A9F7EACFB4E0A69597958795779567953F
:10074200BA95C9F700976105710508959B01AC013F
:100752000A2E06945795479537952795BA95C9F766
:0C076200620F731F841F951FA01D0895D7
:10076E000F931F93CF93DF93FB01248121FD03C0D1
:10077E008FEF9FEF2CC022FF16C047815085258139
:10078E0036814217530744F4A081B1819D012F5F3A
:10079E003F4F318320838C93278130852F5F3F4FCE
:1007AE003087278314C08B01EC01FB010184F28595
:1007BE00E02D0995892BE1F6D80117968D919C9124
:1007CE001897019618969C938E931797CE01DF91EA
:0807DE00CF911F910F910895C6
:1007E600CF93DF93809100019091010122E6289F2B
:1007F600A001299F500D1124EA01D695C795D695DB
:10080600C795D695C7959E01A5ECB0E20E94150640
:10081600FC01F295E295EF70EF27FF70EF2728EEC7
:1008260033E0E29FC001E39F900DF29F900D1124EB
:10083600481B590B443F514008F031968E2FDF91EB
:04084600CF910895B1
:10084A000000000000000000000000000895000001
:10085A00000000000000000000000000000000008E
:10086A000000000000008A95803089F70895282F3B
:10087A008AEFEDDF8AEFEBDF8AEFE9DF8AEFE7DF66
:10088A002A952030A9F70895382F8AEFF0DF8AEFEA
:10089A00EEDF8AEFECDF8AEFEADF3A953030A9F72C
:0208AA000895AF
:1008AC0080EF80BB80EC8AB984E10E943C048BB160
:1008BC008F7B8BB980E30E9424068AE00E943C0463
:1008CC0080E30E9424068AE00E943C0480E30E949C
:1008DC0024068AE00E943C0480E20E9424068DE2F9
:1008EC000E942C0468E280E00E94D5058CE00E94F6
:1008FC0044060E943C0666E080E00E94D5050895FF
:10090C000E94F3032AE5829FC001112465E070E088
:10091C000E94ED05AB01405C5E4F9A01ADECBCEC66
:10092C000E941506FC01F695E795F695E795F69568
:10093C00E7959F01220F331FCF01880F991F880F56
:10094C00991F880F991F820F931F481B590B453015
:0A095C00510508F031968E2F089522
:100966000F931F93CF93C0E01FC025B10C2F10E04B
:10097600C80182959295907F9827807F9827922F1D
:100986009F70892B85B981E00E943C04669B0BC051
:10099600C801110FAA0B895B9E4FAF4FFC018491D2
:1009A600A7FD808104C0CF5FCC30F8F280E0CF9104
:0609B6001F910F9108954E
:1009BC006F927F928F92CF92DF92EF920F933B01C7
:1009CC00882E6901E42E8CE00E9444060E943C06AD
:1009DC00882DB3010E94670560E081E00E94320619
:1009EC008E2DB6010E946705002319F0802F0E94FE
:1009FC0049040F91EF90DF90CF908F907F906F9084
:020A0C0008954B
:100A0E00AFE0B0E0EDE0F5E00C9491050E891F89A2
:100A1E0086E08D831A8309838FEF9FE79F838E83F2
:100A2E009E01255E3F4F488D598D6A8DCE010196F0
:100A3E000E94AA00E885F985E00FF11F10822F961B
:060A4E00E4E00C94C80571
:100A5400ECE7F0E08081806480838081896080831A
:100A6400EAE7F0E080818760808380818062808310
:100A740080818860808380818068808383E0809324
:100A84007E001092D80078948081806480830895D9
:100A94001F920F920FB60F9211242F938F939F934F
:100AA400209178008091790090E0982F8827820F18
:100AB400911D90930101809300019F918F912F913B
:0A0AC4000F900FBE0F901F901895C1
:100ACE00CF92DF92EF92CF936B01E82EC0E004C07D
:100ADE0081E00E94D505CF5FAE2DC6018C0F911D12
:100AEE00A11DFC016491A7FD60816111F1CFCF9131
:080AFE00EF90DF90CF90089506
:100B06002F923F924F925F926F927F928F929F9217
:100B1600AF92BF92CF92DF92EF92FF920F931F9305
:100B2600CF93DF93CDB7DEB7CA1BDB0B0FB6F894B6
:080B3600DEBF0FBECDBF099424
:100B3E00CF92DF92EF926B01E82EA82FCB014115D9
:100B4E00510531F48C199D09EF90DF90CF900895E7
:100B5E00FC012491A7FD20812223A1F30196A11D62
:060B6E0041505109ECCFDB
:100B74002A88398848885F846E847D848C849B8429
:100B8400AA84B984C884DF80EE80FD800C811B8137
:100B9400AA81B981CE0FD11D0FB6F894DEBF0FBE66
:060BA400CDBFED01089534
:100BAA00CF93C62F811104C08BB18F7B8BB903C041
:100BBA008BB180648BB98C2F0E9424068C2F82956E
:100BCA00807F0E9424068DE20E942C04CF91089512
:100BDA0097FB072E16F4009407D077FD09D00E94E0
:100BEA00010607FC05D03EF4909581959F4F089524
:080BFA00709561957F4F08958D
:100C0200AA1BBB1B51E107C0AA1FBB1FA617B70730
:100C120010F0A61BB70B881F991F5A95A9F780954C
:080C22009095BC01CD0108957D
:100C2A00A29FB001B39FC001A39F700D811D112423
:0E0C3A00911DB29F700D811D1124911D089512
:100C480091B39F70807F892B81BB8BB180688BB9F2
:0C0C58000E9425048BB18F778BB90895A2
:100C640020E4829FC0011124682B606880E00E9408
:040C7400D505089505
:100C780061E080E00E94D50582E00E943C0408956E
:0C0C8800682F6C6080E00E94D505089584
:0A0C94000E944F060E9456040895C6
:080C9E001DB880EF84B9089530
:040CA6000C940000AA
:020CAA00DD006B
:00000001FF
