:100000000C945A000C943D060C943D060C943D064D
:100010000C943D060C943D060C943D060C943D0654
:100020000C943D060C943D060C943D060C943D0644
:100030000C943D060C943D060C943D060C943D0634
:100040000C943D060C943D060C943D060C943D0624
:100050000C943D060C943D060C943D060C943D0614
:100060000C943D060C943D060C943D060C943D0604
:100070000C943D060C9434050C943D060C943D06FE
:100080000C943D060C943D060C943D060C943D06E4
:100090000C943D060C943D060C943D060C943D06D4
:1000A0000C943D060C943D060C943D0601000102A3
:1000B000000C7E0011241FBECFEFDAE0DEBFCDBF03
:1000C000ECEAF0E040E017C0B591A591359125919B
:1000D000059107FD0CC095918591EF01F92FE82F4F
:1000E00005900D92A217B307D9F7FE0104C01D9227
:1000F000A217B307E1F7E33BF40731F70E94C1020F
:080100000C948200F894FFCF7B
:1001080025752563430025752563460025752563F8
:10011800432C2025752563460054454D50455241D2
:06012800545552453A0057
:0C012E003134372A32353830333639236B
:10013A002F923F924F926F927F928F929F92AF929D
:10014A00BF92CF92DF92EF92FF920F931F93CF93BA
:10015A00DF93CDB7DEB762970FB6F894DEBF0FBE56
:10016A00CDBF6C013A01862E7901FC0110861782F7
:10017A00848181FFE7C19E012F5F3F4F3D872C8716
:10018A00C901A0E8888B998BAA8B9FE3992EF3016A
:10019A00849187FC8081882309F4D0C1482D93017A
:1001AA002F5F3F4F4F4F853219F03901842E0AC015
:1001BA00F901849147FD808192E0690E711C811CCE
:1001CA00853229F4B60190E00E94A103E0CFB12C58
:1001DA0000E010E01032A0F48B3269F030F4803283
:1001EA0059F0833269F410612CC08D3239F08033B2
:1001FA0039F4116026C01260146023C0186021C04F
:10020A0017FD29C090ED980F9A3078F416FF06C0B2
:10021A00AAE0BA9E900D1124B92E13C0EAE00E9FEF
:10022A00900D1124092F10620CC08E3221F416FD94
:10023A0085C1106406C08C3611F4106802C0883675
:10024A0051F4F301849187FC8081FFEF6F1A7F0AD2
:10025A008F0A8111BFCF982F9F7D9554933028F430
:10026A0024E0E20EF11C99820FC0833631F0833705
:10027A0091F0833509F063C027C0F7018081898333
:10028A0097012E5F3F4F7901288839884A88AA2426
:10029A00A394B12C17C0A7014D5F5F4F5F874E87AC
:1002AA00F70120803180428016FF03C04B2D50E0B9
:1002BA0002C04FEF5FEF842DB1010E9489055C01F6
:1002CA00EE84FF841F7718C097012D5F3F4F3F8749
:1002DA002E87F70120803180428016FF03C04B2D04
:1002EA0050E002C04FEF5FEF842DB1010E948905F3
:1002FA005C011068EE84FF8413FD1DC0802F90E01E
:10030A00A816B906C0F4B60180E290E00E94A103E3
:10031A000150F4CFF101849147FC8081FFEF2F1A3D
:10032A003F0A4F0AB60190E00E94A1030111015051
:10033A0021E0A21AB108A114B10461F7F5C084360C
:10034A0011F0893671F5F70117FF08C060817181D4
:10035A008281938197012C5F3F4F09C0608171812F
:10036A00072E000C880B990B97012E5F3F4F7901DE
:10037A001F76312E97FF0AC09095809570956195EA
:10038A007F4F8F4F9F4F312F3068332E2AE030E056
:10039A00AE014F5F5F4F0E944303482E4C85441ABB
:1003AA004AC0853729F41F7EA12E2AE030E025C0F5
:1003BA00512F597FA52E8F36C1F018F4883579F060
:1003CA00BDC0803719F0883721F0B8C0852F806109
:1003DA00A82EA4FE0DC09A2D9460A92E09C014FF60
:1003EA000AC0A52FA660AA2E06C028E030E005C0E4
:1003FA0020E130E002C020E132E0F701A7FE08C0A8
:10040A006081718182819381A7014C5F5F4F07C030
:10041A006081718180E090E0A7014E5F5F4F7A01B1
:10042A00AE014F5F5F4F0E944303482E5C85451A19
:10043A008A2D8F77382E36FE0DC0932D9E7FA92EDA
:10044A004B1458F434FE0BC032FC09C0A32DAE7E07
:10045A00AA2E05C0142DA32C03C0142D01C01B2DD8
:10046A00A4FE0EC0FE01E40DF11D8081803321F44B
:10047A00EA2DE97EAE2E08C0A2FE05C01E5F04C0AA
:10048A008A2D867809F01F5FA3FC11C0A0FE06C062
:10049A00101788F4040DB02EB11A0EC0101760F4AC
:1004AA00B60180E290E00E94A1031F5FF7CF101708
:1004BA0018F4011B02C0B42C00E0A4FE10C0B6015F
:1004CA0080E390E00E94A103A2FE17C0A1FC03C032
:1004DA0088E790E002C088E590E0B6010CC08A2D5A
:1004EA00867859F0A1FE02C08BE201C080E2A7FC27
:1004FA008DE2B60190E00E94A1034B1438F4B601D4
:10050A0080E390E00E94A103BA94F7CF4A94E1E015
:10051A00F0E0EC0FFD1FE40DF11D8081B60190E0C3
:10052A000E94A1034110F2CF002309F430CEB60194
:10053A0080E290E00E94A1030150F6CFF601878184
:10054A00908502C08FEF9FEF62960FB6F894DEBFD8
:10055A000FBECDBFDF91CF911F910F91FF90EF900A
:10056A00DF90CF90BF90AF909F908F907F906F90C9
:08057A004F903F902F9008956F
:10058200CF93DF93CDB7DEB761970FB6F894DEBF96
:100592000FBECDBF0E9434060E9439060E94140588
:1005A20010E001C010E01130E9F018F0123099F1BA
:1005B20051C00E94DD031F929FED9F931F928F9364
:1005C20088E091E0A0E0AF939F938F93CE010196D4
:1005D2009F938F930E94F1040FB6F894DEBF0FBE73
:1005E200CDBF38C00E9470041F929FED9F931F924F
:1005F2008F938EE091E0A0E0AF939F938F93CE0113
:1006020001969F938F930E94F1040FB6F894DEBF78
:100612000FBECDBF1FC00E947004082F0E94DD03D1
:100622001F929FED9F931F920F931F929F931F9272
:100632008F9384E191E0A0E0AF939F938F93CE01DB
:1006420001969F938F930E94F1040FB6F894DEBF38
:100652000FBECDBF9E012F5F3F4F40E800E061E239
:1006620071E080E00E94C8040E949D04823331F050
:10067200833331F0813309F096CF94CF11E093CFD9
:0406820012E091CF22
:10068600FA01AA27283051F1203181F1E8946F93BD
:100696006E7F6E5F7F4F8F4F9F4FAF4FB1E03ED063
:1006A600B4E03CD0670F781F891F9A1FA11D680F01
:1006B600791F8A1F911DA11D6A0F711D811D911D34
:1006C600A11D20D009F468943F912AE0269F1124A9
:1006D6003019305D3193DEF6CF010895462F47700D
:1006E600405D4193B3E00FD0C9F7F6CF462F4F7068
:1006F600405D4A3318F0495D31FD4052419302D0C6
:10070600A9F7EACFB4E0A69597958795779567956B
:10071600BA95C9F700976105710508959B01AC016B
:100726000A2E06945795479537952795BA95C9F792
:0C073600620F731F841F951FA01D089503
:100742000F931F93CF93DF93FB01248121FD03C0FD
:100752008FEF9FEF2CC022FF16C047815085258165
:1007620036814217530744F4A081B1819D012F5F66
:100772003F4F318320838C93278130852F5F3F4FFA
:100782003087278314C08B01EC01FB010184F285C1
:10079200E02D0995892BE1F6D80117968D919C9150
:1007A2001897019618969C938E931797CE01DF9116
:0807B200CF911F910F910895F2
:1007BA00CF93DF93809100019091010122E6289F57
:1007CA00A001299F500D1124EA01D695C795D69507
:1007DA00C795D695C7959E01A5ECB0E20E94FF0584
:1007EA00FC01F295E295EF70EF27FF70EF2728EEF4
:1007FA0033E0E29FC001E39F900DF29F900D112418
:10080A00481B590B443F514008F031968E2FDF9117
:04081A00CF910895DD
:10081E00000000000000000000000000089500002D
:10082E0000000000000000000000000000000000BA
:10083E000000000000008A95803089F70895282F67
:10084E008AEFEDDF8AEFEBDF8AEFE9DF8AEFE7DF92
:10085E002A952030A9F70895382F8AEFF0DF8AEF16
:10086E00EEDF8AEFECDF8AEFEADF3A953030A9F758
:02087E000895DB
:1008800080EF80BB80EC8AB984E10E9426048BB1A2
:100890008F7B8BB980E30E940E068AE00E942604BB
:1008A00080E30E940E068AE00E94260480E30E94F4
:1008B0000E068AE00E94260480E20E940E068DE267
:1008C0000E94160468E280E00E94BF058CE00E944E
:1008D0002E060E94260666E080E00E94BF0508956D
:1008E0000E94DD032AE5829FC001112465E070E0CB
:1008F0000E94D705AB01405C5E4F9A01ADECBCECA9
:100900000E94FF05FC01F695E795F695E795F695AB
:10091000E7959F01220F331FCF01880F991F880F82
:10092000991F880F991F820F931F481B590B453041
:0A093000510508F031968E2F08954E
:10093A000F931F93CF93C0E01FC025B10C2F10E077
:10094A00C80182959295907F9827807F9827922F49
:10095A009F70892B85B981E00E942604669B0BC093
:10096A00C801110FAA0B825D9E4FAF4FFC01849103
:10097A00A7FD808104C0CF5FCC30F8F280E0CF9130
:06098A001F910F9108957A
:100990006F927F928F92CF92DF92EF920F933B01F3
:1009A000882E6901E42E8CE00E942E060E94260605
:1009B000882DB3010E94510560E081E00E941C0671
:1009C0008E2DB6010E945105002319F0802F0E9440
:1009D00033040F91EF90DF90CF908F907F906F90C6
:0209E000089578
:1009E200AFE0B0E0E7EFF4E00C947B050E891F89DD
:1009F20086E08D831A8309838FEF9FE79F838E831F
:100A02009E01255E3F4F488D598D6A8DCE0101961C
:100A12000E949D00E885F985E00FF11F10822F9654
:060A2200E4E00C94B205B3
:100A2800ECE7F0E080818064808380818960808346
:100A3800EAE7F0E08081876080838081806280833C
:100A480080818860808380818068808383E0809350
:100A58007E001092D8007894808180648083089505
:100A68001F920F920FB60F9211242F938F939F937B
:100A7800209178008091790090E0982F8827820F44
:100A8800911D90930101809300019F918F912F9167
:0A0A98000F900FBE0F901F901895ED
:100AA200CF92DF92EF92CF936B01E82EC0E004C0A9
:100AB20081E00E94BF05CF5FAE2DC6018C0F911D54
:100AC200A11DFC016491A7FD60816111F1CFCF915D
:080AD200EF90DF90CF90089532
:100ADA002F923F924F925F926F927F928F929F9244
:100AEA00AF92BF92CF92DF92EF92FF920F931F9332
:100AFA00CF93DF93CDB7DEB7CA1BDB0B0FB6F894E3
:080B0A00DEBF0FBECDBF099450
:100B1200CF92DF92EF926B01E82EA82FCB01411505
:100B2200510531F48C199D09EF90DF90CF90089513
:100B3200FC012491A7FD20812223A1F30196A11D8E
:060B420041505109ECCF07
:100B48002A88398848885F846E847D848C849B8455
:100B5800AA84B984C884DF80EE80FD800C811B8163
:100B6800AA81B981CE0FD11D0FB6F894DEBF0FBE92
:060B7800CDBFED01089560
:100B7E00CF93C62F811104C08BB18F7B8BB903C06D
:100B8E008BB180648BB98C2F0E940E068C2F8295B0
:100B9E00807F0E940E068DE20E941604CF9108956A
:100BAE0097FB072E16F4009407D077FD09D00E940C
:100BBE00EB0507FC05D03EF4909581959F4F089567
:080BCE00709561957F4F0895B9
:100BD600AA1BBB1B51E107C0AA1FBB1FA617B7075D
:100BE60010F0A61BB70B881F991F5A95A9F7809579
:080BF6009095BC01CD010895AA
:100BFE00A29FB001B39FC001A39F700D811D112450
:0E0C0E00911DB29F700D811D1124911D08953E
:100C1C0091B39F70807F892B81BB8BB180688BB91E
:0C0C2C000E940F048BB18F778BB90895E4
:100C380020E4829FC0011124682B606880E00E9434
:040C4800BF05089547
:100C4C0061E080E00E94BF0582E00E9426040895C6
:0C0C5C00682F6C6080E00E94BF050895C6
:0A0C68000E9439060E94400408951E
:080C72001DB880EF84B908955C
:040C7A000C940000D6
:020C7E00DD0097
:00000001FF
